{
  "_format": "hh-sol-artifact-1",
  "contractName": "AccessControlLite",
  "sourceName": "contracts/AccessControlLite.sol",
  "abi": [
    {
      "inputs": [],
      "stateMutability": "nonpayable",
      "type": "constructor"
    },
    {
      "anonymous": false,
      "inputs": [
        {
          "indexed": true,
          "internalType": "address",
          "name": "account",
          "type": "address"
        }
      ],
      "name": "AdminGranted",
      "type": "event"
    },
    {
      "anonymous": false,
      "inputs": [
        {
          "indexed": true,
          "internalType": "address",
          "name": "account",
          "type": "address"
        }
      ],
      "name": "AdminRevoked",
      "type": "event"
    },
    {
      "anonymous": false,
      "inputs": [
        {
          "indexed": true,
          "internalType": "address",
          "name": "previousOwner",
          "type": "address"
        },
        {
          "indexed": true,
          "internalType": "address",
          "name": "newOwner",
          "type": "address"
        }
      ],
      "name": "OwnerTransferred",
      "type": "event"
    },
    {
      "anonymous": false,
      "inputs": [
        {
          "indexed": true,
          "internalType": "address",
          "name": "account",
          "type": "address"
        }
      ],
      "name": "UserGranted",
      "type": "event"
    },
    {
      "anonymous": false,
      "inputs": [
        {
          "indexed": true,
          "internalType": "address",
          "name": "account",
          "type": "address"
        }
      ],
      "name": "UserRevoked",
      "type": "event"
    },
    {
      "inputs": [
        {
          "internalType": "address",
          "name": "account",
          "type": "address"
        }
      ],
      "name": "grantAdmin",
      "outputs": [],
      "stateMutability": "nonpayable",
      "type": "function"
    },
    {
      "inputs": [
        {
          "internalType": "address",
          "name": "account",
          "type": "address"
        }
      ],
      "name": "grantUser",
      "outputs": [],
      "stateMutability": "nonpayable",
      "type": "function"
    },
    {
      "inputs": [
        {
          "internalType": "address",
          "name": "account",
          "type": "address"
        }
      ],
      "name": "isAdmin",
      "outputs": [
        {
          "internalType": "bool",
          "name": "",
          "type": "bool"
        }
      ],
      "stateMutability": "view",
      "type": "function"
    },
    {
      "inputs": [
        {
          "internalType": "address",
          "name": "account",
          "type": "address"
        }
      ],
      "name": "isUser",
      "outputs": [
        {
          "internalType": "bool",
          "name": "",
          "type": "bool"
        }
      ],
      "stateMutability": "view",
      "type": "function"
    },
    {
      "inputs": [],
      "name": "owner",
      "outputs": [
        {
          "internalType": "address",
          "name": "",
          "type": "address"
        }
      ],
      "stateMutability": "view",
      "type": "function"
    },
    {
      "inputs": [],
      "name": "protectedAction",
      "outputs": [
        {
          "internalType": "string",
          "name": "",
          "type": "string"
        }
      ],
      "stateMutability": "view",
      "type": "function"
    },
    {
      "inputs": [
        {
          "internalType": "address",
          "name": "account",
          "type": "address"
        }
      ],
      "name": "revokeAdmin",
      "outputs": [],
      "stateMutability": "nonpayable",
      "type": "function"
    },
    {
      "inputs": [
        {
          "internalType": "address",
          "name": "account",
          "type": "address"
        }
      ],
      "name": "revokeUser",
      "outputs": [],
      "stateMutability": "nonpayable",
      "type": "function"
    },
    {
      "inputs": [
        {
          "internalType": "address",
          "name": "newOwner",
          "type": "address"
        }
      ],
      "name": "transferOwnership",
      "outputs": [],
      "stateMutability": "nonpayable",
      "type": "function"
    }
  ],
  "bytecode": "0x608060405234801561001057600080fd5b50600080546001600160a01b0319163390811782556040519091907f8934ce4adea8d9ce0d714d2c22b86790e41b7731c84b926fbbdc1d40ff6533c9908290a36108e28061005f6000396000f3fe608060405234801561001057600080fd5b50600436106100935760003560e01c80633d7b369a116100665780633d7b369a146101145780634209fff1146101295780638da5cb5b14610155578063ef097fc414610180578063f2fde38b1461019357600080fd5b80630aebdce81461009857806324d7806c146100ad5780632d345670146100ee57806335bb3e1614610101575b600080fd5b6100ab6100a6366004610795565b6101a6565b005b6100d96100bb366004610795565b6001600160a01b031660009081526001602052604090205460ff1690565b60405190151581526020015b60405180910390f35b6100ab6100fc366004610795565b6102fe565b6100ab61010f366004610795565b6103d9565b61011c610511565b6040516100e591906107c5565b6100d9610137366004610795565b6001600160a01b031660009081526002602052604090205460ff1690565b600054610168906001600160a01b031681565b6040516001600160a01b0390911681526020016100e5565b6100ab61018e366004610795565b6105bb565b6100ab6101a1366004610795565b6106b0565b6000546001600160a01b03163314806101ce57503360009081526001602052604090205460ff165b6101f35760405162461bcd60e51b81526004016101ea90610813565b60405180910390fd5b6001600160a01b0381166102495760405162461bcd60e51b815260206004820152601f60248201527f416363657373436f6e74726f6c4c6974653a207a65726f20616464726573730060448201526064016101ea565b6001600160a01b03811660009081526002602052604090205460ff16156102b25760405162461bcd60e51b815260206004820152601f60248201527f416363657373436f6e74726f6c4c6974653a20616c726561647920757365720060448201526064016101ea565b6001600160a01b038116600081815260026020526040808220805460ff19166001179055517f745ca3cd88c78c8212111cbd382f8ce7d6f453b445c65bbfd2160d297c3751639190a250565b6000546001600160a01b031633146103285760405162461bcd60e51b81526004016101ea90610862565b6001600160a01b03811660009081526001602052604090205460ff166103905760405162461bcd60e51b815260206004820152601c60248201527f416363657373436f6e74726f6c4c6974653a206e6f742061646d696e0000000060448201526064016101ea565b6001600160a01b038116600081815260016020526040808220805460ff19169055517f631ff1c4e1a02c54b480a34b810e03bcee61fe38efcb243930a7f820914923e29190a250565b6000546001600160a01b031633146104035760405162461bcd60e51b81526004016101ea90610862565b6001600160a01b0381166104595760405162461bcd60e51b815260206004820152601f60248201527f416363657373436f6e74726f6c4c6974653a207a65726f20616464726573730060448201526064016101ea565b6001600160a01b03811660009081526001602052604090205460ff16156104c25760405162461bcd60e51b815260206004820181905260248201527f416363657373436f6e74726f6c4c6974653a20616c72656164792061646d696e60448201526064016101ea565b6001600160a01b0381166000818152600160208190526040808320805460ff1916909217909155517f1c4e23de8d72c94b22992bd4d7b6786b215ba876af214ff63e6a0ca38fc97af49190a250565b3360009081526002602052604090205460609060ff166105835760405162461bcd60e51b815260206004820152602760248201527f416363657373436f6e74726f6c4c6974653a2063616c6c6572206973206e6f746044820152661030903ab9b2b960c91b60648201526084016101ea565b5060408051808201909152601981527f50726f74656374656420616374696f6e20657865637574656400000000000000602082015290565b6000546001600160a01b03163314806105e357503360009081526001602052604090205460ff165b6105ff5760405162461bcd60e51b81526004016101ea90610813565b6001600160a01b03811660009081526002602052604090205460ff166106675760405162461bcd60e51b815260206004820152601b60248201527f416363657373436f6e74726f6c4c6974653a206e6f742075736572000000000060448201526064016101ea565b6001600160a01b038116600081815260026020526040808220805460ff19169055517fb43ac7bf01d16ebcb8c868a4c03fecb1f6984ea4fa1a52c116ef282b8dbb17c59190a250565b6000546001600160a01b031633146106da5760405162461bcd60e51b81526004016101ea90610862565b6001600160a01b0381166107455760405162461bcd60e51b815260206004820152602c60248201527f416363657373436f6e74726f6c4c6974653a206e6577206f776e65722069732060448201526b7a65726f206164647265737360a01b60648201526084016101ea565b600080546001600160a01b038381166001600160a01b0319831681178455604051919092169283917f8934ce4adea8d9ce0d714d2c22b86790e41b7731c84b926fbbdc1d40ff6533c99190a35050565b6000602082840312156107a757600080fd5b81356001600160a01b03811681146107be57600080fd5b9392505050565b600060208083528351808285015260005b818110156107f2578581018301518582016040015282016107d6565b506000604082860101526040601f19601f8301168501019250505092915050565b6020808252602f908201527f416363657373436f6e74726f6c4c6974653a2063616c6c6572206973206e6f7460408201526e1030b236b4b71037b91037bbb732b960891b606082015260800190565b6020808252602a908201527f416363657373436f6e74726f6c4c6974653a2063616c6c6572206973206e6f74604082015269103a34329037bbb732b960b11b60608201526080019056fea26469706673582212209fbe7efb8c5c76f44c45e76047374e547f65cf619d6654681537b7182226ab1f64736f6c63430008140033",
  "linkReferences": {},
  "deployedLinkReferences": {}
}